:1000000018C132C131C151C12FC15FC12DC12CC135
:100010002BC12AC12AC139C127C162C27CC2FFFFDC
:10002000EBFFD7FFC3FFAFFF9CFF88FF74FF60FFAC
:100030004CFF38FF24FF0EFFF7FEDFFEC6FEABFECF
:1000400090FE73FE54FE35FE14FEF1FDCDFDA8FDBD
:1000500082FD5AFD31FD06FDDAFCACFC7DFC4CFC5A
:100060001AFCE7FBB2FB7BFB43FB09FBCDFA90FAE2
:1000700052FA12FAD0F98CF947F901F9B8F86EF88A
:1000800022F8D5F785F735F7E2F68DF637F6DFF586
:1000900086F52AF5CDF46EF40DF4AAF345F3DFF2FC
:1000A00077F20DF2A1F133F1C3F051F0DEEF68EF1A
:1000B000F1EE77EEFCED7FEDFFEC7EECFBEB76EB0B
:1000C000EFEA65EADAE94DE9BEE82CE899E704E7EA
:1000D0006CE6D3E537E599E4F9E358E3B3E20DE2E2
:1000E00065E1BBE00EE05FDFAFDEFBDD46DD8FDC10
:1000F000D5DB1ADB5CDA9BD9D9D814D84ED784D695
:10010000B9D5EBD41CD449D375D29ED1C5D0EACF92
:100110000DCF2DCE4BCD66CC7FCB96CAAAC9BDC81C
:10012000CCC7DAC6E5C5EDC4F4C3F8C2F9C1F8C05E
:10013000F5BFEFBEE7BDDCBCCFBBC0BAAEB99AB865
:1001400083B76AB64EB530B40FB3ECB1C6B09EAF4C
:1001500073AE46AD16ACE4AAAFA978A83EA701A637
:10016000C2A481A33DA2F6A0AD9F619E129DC19B3A
:100170006E9A1799BF9763960595A4934192DB9069
:10018000728F078E998C288BB5893F88C6864B85E0
:10019000CD834C82C880427FB97D2E7CA07A0F79B6
:1001A0007B77E4754B74AF7210716F6FCA6D236CFF
:1001B000796ACD681D676B65B663FE614460865ED3
:1001C000C65C035B3D597457A955DA530952355043
:1001D0005E4E844CA84AC848E646004518432D4167
:1001E0003F3F4E3D5A3B63396A376D356E336B3155
:1001F000662F5E2D522B442933271F250823EE201E
:10020000D11EB11C8E1A68183F161314E411B20FD8
:100210007D0D450B0A09CC068B0447020000030044
:10022000326EFF0000326E00FF00326E0000FF1ED3
:10023000020011241FBECFE5D1E0DEBFCDBF10E02C
:10024000A0E6B0E0E2E9F0E102C005900D92A2362E
:10025000B107D9F710E0A2E6B0E001C01D92A13FBE
:10026000B107E1F7D5D013C7CBCE1F920F920FB6CF
:100270000F9211248F9389B78F7E89BFC3988F9176
:100280000F900FBE0F901F9018951F920F920FB6F0
:100290000F9211248F9389B7877F89BFC4988F915C
:1002A0000F900FBE0F901F9018951F920F920FB6D0
:1002B0000F9211248F9389B78F7B89BFC1988F913B
:1002C0000F900FBE0F901F9018951F920F920FB6B0
:1002D0000F9211242F933F934F935F936F937F93CC
:1002E0008F939F93AF93BF93EF93FF9380916E0093
:1002F000882309F04DC0C39AC49AC19AE1D4809171
:10030000C500882379F089EC90E066EC70E0E8D4D1
:100310008AEC90E067EC70E0E3D48BEC90E068EC62
:1003200070E0DED48091CB00E82FF0E0EE0FFF1FED
:10033000E25EFF4F859194919093630080936200F9
:1003400090936500809364008091C900E82FF0E0ED
:10035000EE0FFF1FE25EFF4F85919491909367002F
:100360008093660090936900809368008091CA0032
:10037000E82FF0E0EE0FFF1FE25EFF4F85919491B2
:1003800090936B0080936A0090936D0080936C0053
:1003900090916E0080916900981751F48091C90086
:1003A000882331F08091680089BD89B7806189BF59
:1003B00080916D00981751F48091CA00882331F024
:1003C00080916C0088BD89B7886089BF8091650085
:1003D000981751F48091CB00882331F0809164000C
:1003E0008EBD89B7806489BF9F5F90936E00FF9137
:1003F000EF91BF91AF919F918F917F916F915F919D
:100400004F913F912F910F900FBE0F901F90189515
:1004100081D403D185D124D08FEF89BD88BD86E0FA
:1004200088BF82E089BF81E083BF80BF789402C02B
:100430003BD0B8D34CD0882361F0FACFE92FF0E05D
:10044000E770F070E453FF4F84899F5F9093DE0064
:100450001AD09091DE008091DF00981779F7EACFEB
:100460001092B1001092B0001092C3001092C2001E
:1004700087B3856087BBC29AC09AB89888EA8DB95D
:1004800080EF8EB90895282F9091C2009F5F9F70D2
:100490008091C3009817E1F3E92FF0E0EE54FF4F8D
:1004A00020839093C20008959091B0008091B10094
:1004B0009817D1F38091B1008F5F8F738093B10053
:1004C000E091B100F0E0E059FF4F808108959091F4
:1004D000B0008091B10020E0981321E0822F0895B0
:1004E0001F920F920FB60F9211248F9310926F00EC
:1004F000B898B29B02C0B09BFCCFB09902C088EF05
:1005000001C088EA8DB980EF8EB98F910F900FBE30
:100510000F901F9018951F920F920FB60F921124F3
:100520008F939F93EF93FF9380916F008230D9F167
:10053000833030F4882361F0813009F054C01BC04F
:100540008430B9F1843088F0853009F04CC037C070
:100550008FB1882331F08FB186959091DC00891797
:1005600039F4789B39C081E038C08FB1882319F005
:1005700088EA8DB922C09091C2008091C30098177B
:1005800091F18091C3008F5F8F708093C300E091E1
:10059000C300F0E0EE54FF4F80818FB982E080937A
:1005A0006F00B89A0AC083E080936F00B8981FB8B4
:1005B00018C085E080936F00B89880E713C08091E1
:1005C000B0008F5F8F738093B000E091B0008FB167
:1005D000F0E0E059FF4F808384E080936F001FB804
:1005E000B89A8EE78EB9FF91EF919F918F910F90FE
:1005F0000FBE0F901F901895E199FECF8EBBE09A29
:100600008DB30895E199FECF1CBA8EBB6DBB0FB6BA
:10061000F894E29AE19A0FBE08951092D4008FEFF9
:100620008093D5001092D6001092D7001092D80077
:100630001092D9001092DA001092DB008DE08093C6
:10064000DC001092DD001092DE001092DF008AE2E2
:100650008093E8001092F00008958F36A1F1813662
:1006600091F1873681F18A3571F18A3761F18434ED
:1006700051F1843751F1863641F18A3631F18435B2
:1006800021F1823521F18C3611F18E3611F18E3443
:1006900001F18336F1F08334E1F08836D1F088340B
:1006A000C1F08C34B1F08037A1F0813411F485E0D1
:1006B0000895823411F486E00895873511F08FEFA4
:1006C000089588E0089581E0089582E0089583E028
:1006D000089584E00895682F882311F480E0089538
:1006E000809160008F5F809360009091DD009F5F3C
:1006F000980F292F30E043E0220F331F4A95E1F78E
:10070000892F880F880B820F92959F70890F93E035
:10071000220F331F9A95E1F7821B4FD4892F08953A
:10072000DF93CF9300D000D000D0CDB7DEB7E199F2
:10073000FECFE199FECF86E090E08EBBE09A8DB3CC
:100740008093DC00E199FECFCE01019660E070E07D
:1007500046E050E02CEF32E0EAD38981813299F40F
:100760008A81882381F08093D6008B818093D90081
:100770008E818093D7008C81882311F08093C400F0
:100780008D818093DB0026960FB6F894DEBF0FBEF6
:10079000CDBFCF91DF910895EF92FF920F931F93FA
:1007A000DF93CF93CDB7DEB72E970FB6F894DEBFA9
:1007B0000FBECDBF7C01FC0180818434B1F4209157
:1007C000DF00A8EEB0E0922FE92FF0E0E770F070C4
:1007D000E453FF4F8D91848B9F5FF0E0A03FBF07F4
:1007E00099F7285F2093DF00D0C18E3669F410920C
:1007F000C500F70181818093C90082818093CA007E
:1008000083818093CB00C1C18E3479F41092C500EE
:10081000F70181816281438129EC30E00AEC10E02C
:100820007BECE72E70E0F72E3FC0833671F481E059
:100830008093C500F70181818093C60082818093F7
:10084000C70083818093C800A0C18334E1F481E0B4
:100850008093C5001091C900F70181813CDF180F1A
:100860001093C6001091CA00F701828134DF180F7F
:100870001093C7001091CB00F70183812CDF180F74
:100880001093C80082C1883689F481E08093C50046
:10089000F70181816281438126EC30E007EC10E0B2
:1008A00058ECE52E50E0F52EB3D26FC1883449F5EF
:1008B00081E08093C5006091C9007091CA00809169
:1008C000CB00AE014F5F5F4F9E012E5F3F4F8E0109
:1008D0000D5F1F4F28D21981F7018181FCDE180FAF
:1008E00019831A81F7018281F6DE180F1A831B81A2
:1008F000F7018381F0DE482F410F4B8389816A81A4
:10090000CBCF8A3609F439C18735F9F4F7018281F2
:100910008A3008F03AC183818C8384818D838581FC
:100920008E8386818F8387818887E199FECFF70147
:10093000828190E065E070E02ED3875F9F4FBE011B
:100940006C5F7F4F45E050E035C0803771F4F701B0
:1009500081818F5F8093D60082818093D9008381CB
:100960008093D8001092DD0010C18F3619F41092D8
:10097000D6000BC1823411F581E28987F7018181AC
:10098000882321F082818F5F8A8701C01A86F70150
:1009900083818B8784818C8785818D878091D70027
:1009A0008E87E199FECF80E090E0BE01675F7F4FC8
:1009B00046E050E022E033E0D4D2E7C0863641F48E
:1009C000F7018181882309F4E0C08093C400DDC071
:1009D000843729F4F70181818093DB00D6C08C3401
:1009E00041F4F70182818093D70083818093D900FD
:1009F000CCC08134F9F4F7018281803D09F0C5C093
:100A000083818D3009F0C1C021818481281709F0CC
:100A1000BCC02093DC00E199FECFE199FECF1CBA67
:100A200086E090E08EBB2DBB0FB6F894E29AE19A77
:100A30000FBEABC0813679F48091DF00E82FF0E083
:100A4000E770F070E453FF4F9091DC00948B8F5F60
:100A50008093DF009AC08736F9F49091DF00E92F88
:100A6000F0E0E770F070E453FF4F8091C900848B91
:100A70009F5FE92FF0E0E770F070E453FF4F809143
:100A8000CA00848B9F5FE92FF0E0E770F070E453B9
:100A9000FF4F8091CB0047C0823589F5E199FECFA9
:100AA000F701828190E065E070E075D2BC01675F7C
:100AB0007F4FCE01049645E050E02CEF32E037D274
:100AC0009091DF00E92FF0E0E770F070E453FF4F02
:100AD0008C81848B9F5FDE011596292FAE01475FC5
:100AE0005F4FE22FF0E0E770F070E453FF4F8D911D
:100AF000848B2F5FA417B507A1F79C5F16C08A35BA
:100B0000B9F49091DF00E92FF0E0E770F070E45362
:100B1000FF4F81E0848B9F5FE92FF0E0E770F0707A
:100B2000E453FF4F83E0848B9F5F9093DF002DC0E1
:100B30008A3791F485B7877E806185BF85B78062EB
:100B400085BF85B7806285BF889585B78F7D85BF56
:100B500085B78F7D85BF19C08C36B9F48091F000C0
:100B6000882321F4F70182818093F0008091F000C6
:100B700081508093F000882341F08091D80081500B
:100B8000F7019181890F8093D8002E960FB6F894C3
:100B9000DEBF0FBECDBFCF91DF911F910F91FF90B0
:100BA000EF9008951F93CF93DF931091D400C12F3E
:100BB000D0E0FE01E453FF4F8083112319F44DDD93
:100BC0008093D5008091D50090E00197C817D90790
:100BD00031F48CEC90E0E0DD1092D40003C01F5F94
:100BE0001093D400DF91CF911F910895DF93CF939D
:100BF00000D000D00F92CDB7DEB78091D600813003
:100C000099F4E199FECF8091D80090E065E070E022
:100C1000C2D1BC01675F7F4FCE01019645E050E035
:100C20002CEF32E084D11BC090E0880F991F855DC6
:100C30009D4FFC0125913491F90184918093D70057
:100C40008091D80090E065E070E0A5D10296280F71
:100C5000391FCE010196B90145E050E05FD1809186
:100C6000D8008F5F8093D800CE01029695DD8A81EF
:100C7000843519F48B812FDD89839091D800809180
:100C8000D700981789F41092D8009091D900992331
:100C900059F08091DA008F5F8093DA00891720F095
:100CA0001092D6001092DA008091DB009981890FB2
:100CB0000F900F900F900F900F90CF91DF910895AC
:100CC0008091D600882359F08091DD008F5F80935A
:100CD000DD00815021F48ADF81958093DD00089545
:100CE000DC01FB018C91E0818E1799F09091C4009A
:100CF000E81748F4282F2E1BE22F921708F4E92F4B
:100D00008E1B8C930895E81B9E1708F4E92F8E0F15
:100D10008C9308951092C50081E08093C400BB9A23
:100D2000BC9AB99A0895CF92DF92EF92FF920F93F7
:100D30001F93DF93CF9300D00F92CDB7DEB77A0128
:100D40006901D801472FE82F362F871730F0731726
:100D500008F4672F4E1750F004C0682F381708F4B6
:100D6000632F232F341730F4242F04C02E2FE317C2
:100D700008F4232F2C93222319F4D6011C920EC0C1
:100D8000F22FF61B8F2F90E06FEF70E004D1622FEF
:100D900070E01FD1D6016C93662319F4F70110821D
:100DA0002BC0231759F4842F90E08E1B91096BE21E
:100DB00070E0F1D06F2F70E00CD11CC0632F70E099
:100DC000241771F48E2F90E0861B970B6BE270E076
:100DD000E2D06F2F70E0FDD06B5AF70160830CC03A
:100DE000CB01841B91096BE270E0D5D06F2F70E0CE
:100DF000F0D06555D7016C930F900F900F90CF9165
:100E0000DF911F910F91FF90EF90DF90CF900895A9
:100E10009F92AF92BF92CF92DF92EF92FF920F9389
:100E20001F93CF93DF93562FF901E80187016623C3
:100E300019F4408348835FC06BE2BFD0B82E942E74
:100E400092946FE0962252955F70E52EFF2420E188
:100E500030E0C9018E199F09692D70E09CD0A82E41
:100E60008B2D90E06BE270E096D054E095958795DD
:100E70005A95E1F7C82EDD24C9018C199D09B701E7
:100E80008AD060E170E0A5D0CB01909581959F4F0D
:100E90004096692D70E07FD0282FBB2019F4408345
:100EA000888313C0C601B70176D060E170E091D0AD
:100EB000CB01909581959F4F4096692D70E06BD046
:100EC00091E0B91629F480834883F801A0821AC002
:100ED00092E0B91629F4A0824883F801208312C059
:100EE00093E0B91619F4A082888305C094E0B9167E
:100EF00029F42083A882F801408304C04083A8829B
:100F0000F8018083DF91CF911F910F91FF90EF90B7
:100F1000DF90CF90BF90AF909F900895FB01DC01D0
:100F200002C005900D9241505040D8F70895A0E0BE
:100F3000B0E0ECE9F7E07EC07C01EB018A016901D9
:100F400009C0CE012196F6010995F70181937F0131
:100F50000150104001151105A1F7CDB7DEB7E8E04B
:100F600085C0A0E0B0E0E6EBF7E064C0EC017B01F7
:100F70008A01690109C0CE012196F70161917F01C3
:100F8000F60109950150104001151105A1F7CDB7E3
:100F9000DEB7E8E06BC05527002480FF02C0060ED4
:100FA000571F660F771F6115710521F0969587957C
:100FB000009799F7952F802D0895991B79E004C02B
:100FC000991F961708F0961B881F7A95C9F7809588
:100FD000089597FB092E07260AD077FD04D00CD080
:100FE00006D000201AF4709561957F4F0895F6F7AA
:100FF000909581959F4F0895AA1BBB1B51E107C097
:10100000AA1FBB1FA617B70710F0A61BB70B881F98
:10101000991F5A95A9F780959095BC01CD01089527
:101020002F923F924F925F926F927F928F929F92F8
:10103000AF92BF92CF92DF92EF92FF920F931F93E6
:10104000CF93DF93CDB7DEB7CA1BDB0B0FB6F89497
:10105000DEBF0FBECDBF09942A88398848885F84D7
:101060006E847D848C849B84AA84B984C884DF8048
:10107000EE80FD800C811B81AA81B981CE0FD11D2C
:101080000FB6F894DEBF0FBECDBFED010895F89402
:02109000FFCF90
:0210920001005B
:00000001FF
